{
  "contractName": "ERC223",
  "abi": [
    {
      "constant": true,
      "inputs": [],
      "name": "totalSupply",
      "outputs": [
        {
          "name": "",
          "type": "uint256"
        }
      ],
      "payable": false,
      "stateMutability": "view",
      "type": "function",
      "signature": "0x18160ddd"
    },
    {
      "constant": true,
      "inputs": [],
      "name": "owner",
      "outputs": [
        {
          "name": "",
          "type": "address"
        }
      ],
      "payable": false,
      "stateMutability": "view",
      "type": "function",
      "signature": "0x8da5cb5b"
    },
    {
      "constant": true,
      "inputs": [],
      "name": "remainingSupply",
      "outputs": [
        {
          "name": "",
          "type": "uint256"
        }
      ],
      "payable": false,
      "stateMutability": "view",
      "type": "function",
      "signature": "0xda0239a6"
    },
    {
      "inputs": [],
      "payable": false,
      "stateMutability": "nonpayable",
      "type": "constructor",
      "signature": "constructor"
    },
    {
      "anonymous": false,
      "inputs": [
        {
          "indexed": false,
          "name": "from",
          "type": "string"
        },
        {
          "indexed": false,
          "name": "to",
          "type": "string"
        },
        {
          "indexed": false,
          "name": "value",
          "type": "uint256"
        },
        {
          "indexed": false,
          "name": "data",
          "type": "bytes"
        }
      ],
      "name": "Transfer",
      "type": "event",
      "signature": "0xe8cca054678291c72a36fdd68416aea936e6b2720caa266fa5070fbae858d191"
    },
    {
      "constant": false,
      "inputs": [
        {
          "name": "myName",
          "type": "string"
        }
      ],
      "name": "registerMe",
      "outputs": [
        {
          "name": "",
          "type": "bool"
        }
      ],
      "payable": true,
      "stateMutability": "payable",
      "type": "function",
      "signature": "0x218add39"
    },
    {
      "constant": true,
      "inputs": [
        {
          "name": "name",
          "type": "string"
        },
        {
          "name": "addr",
          "type": "address"
        }
      ],
      "name": "isRegistered",
      "outputs": [
        {
          "name": "",
          "type": "bool"
        }
      ],
      "payable": false,
      "stateMutability": "view",
      "type": "function",
      "signature": "0xbd290b81"
    },
    {
      "constant": true,
      "inputs": [
        {
          "name": "who",
          "type": "string"
        }
      ],
      "name": "balanceOf",
      "outputs": [
        {
          "name": "",
          "type": "uint256"
        }
      ],
      "payable": false,
      "stateMutability": "view",
      "type": "function",
      "signature": "0x35ee5f87"
    },
    {
      "constant": false,
      "inputs": [
        {
          "name": "from",
          "type": "string"
        },
        {
          "name": "to",
          "type": "string"
        },
        {
          "name": "value",
          "type": "uint256"
        }
      ],
      "name": "transfer",
      "outputs": [
        {
          "name": "",
          "type": "bool"
        }
      ],
      "payable": false,
      "stateMutability": "nonpayable",
      "type": "function",
      "signature": "0x9b80b050"
    },
    {
      "constant": false,
      "inputs": [
        {
          "name": "from",
          "type": "string"
        },
        {
          "name": "to",
          "type": "string"
        },
        {
          "name": "value",
          "type": "uint256"
        },
        {
          "name": "data",
          "type": "bytes"
        }
      ],
      "name": "transfer",
      "outputs": [
        {
          "name": "",
          "type": "bool"
        }
      ],
      "payable": false,
      "stateMutability": "nonpayable",
      "type": "function",
      "signature": "0xacbae75e"
    }
  ],
  "bytecode": "0x608060405234801561001057600080fd5b506301406f406003819055506301406f4060048190555033600560006101000a81548173ffffffffffffffffffffffffffffffffffffffff021916908373ffffffffffffffffffffffffffffffffffffffff160217905550662386f26fc10000600681905550611e5e806100856000396000f3fe608060405260043610610088576000357c01000000000000000000000000000000000000000000000000000000009004806318160ddd1461008d578063218add39146100b857806335ee5f871461018b5780638da5cb5b146102675780639b80b050146102be578063acbae75e1461043f578063bd290b8114610657578063da0239a614610757575b600080fd5b34801561009957600080fd5b506100a2610782565b6040518082815260200191505060405180910390f35b610171600480360360208110156100ce57600080fd5b81019080803590602001906401000000008111156100eb57600080fd5b8201836020820111156100fd57600080fd5b8035906020019184600183028401116401000000008311171561011f57600080fd5b91908080601f016020809104026020016040519081016040528093929190818152602001838380828437600081840152601f19601f820116905080830192505050505050509192919290505050610788565b604051808215151515815260200191505060405180910390f35b34801561019757600080fd5b50610251600480360360208110156101ae57600080fd5b81019080803590602001906401000000008111156101cb57600080fd5b8201836020820111156101dd57600080fd5b803590602001918460018302840111640100000000831117156101ff57600080fd5b91908080601f016020809104026020016040519081016040528093929190818152602001838380828437600081840152601f19601f820116905080830192505050505050509192919290505050610aec565b6040518082815260200191505060405180910390f35b34801561027357600080fd5b5061027c610b61565b604051808273ffffffffffffffffffffffffffffffffffffffff1673ffffffffffffffffffffffffffffffffffffffff16815260200191505060405180910390f35b3480156102ca57600080fd5b50610425600480360360608110156102e157600080fd5b81019080803590602001906401000000008111156102fe57600080fd5b82018360208201111561031057600080fd5b8035906020019184600183028401116401000000008311171561033257600080fd5b91908080601f016020809104026020016040519081016040528093929190818152602001838380828437600081840152601f19601f8201169050808301925050505050505091929192908035906020019064010000000081111561039557600080fd5b8201836020820111156103a757600080fd5b803590602001918460018302840111640100000000831117156103c957600080fd5b91908080601f016020809104026020016040519081016040528093929190818152602001838380828437600081840152601f19601f82011690508083019250505050505050919291929080359060200190929190505050610b87565b604051808215151515815260200191505060405180910390f35b34801561044b57600080fd5b5061063d6004803603608081101561046257600080fd5b810190808035906020019064010000000081111561047f57600080fd5b82018360208201111561049157600080fd5b803590602001918460018302840111640100000000831117156104b357600080fd5b91908080601f016020809104026020016040519081016040528093929190818152602001838380828437600081840152601f19601f8201169050808301925050505050505091929192908035906020019064010000000081111561051657600080fd5b82018360208201111561052857600080fd5b8035906020019184600183028401116401000000008311171561054a57600080fd5b91908080601f016020809104026020016040519081016040528093929190818152602001838380828437600081840152601f19601f82011690508083019250505050505050919291929080359060200190929190803590602001906401000000008111156105b757600080fd5b8201836020820111156105c957600080fd5b803590602001918460018302840111640100000000831117156105eb57600080fd5b91908080601f016020809104026020016040519081016040528093929190818152602001838380828437600081840152601f19601f820116905080830192505050505050509192919290505050610b9f565b604051808215151515815260200191505060405180910390f35b34801561066357600080fd5b5061073d6004803603604081101561067a57600080fd5b810190808035906020019064010000000081111561069757600080fd5b8201836020820111156106a957600080fd5b803590602001918460018302840111640100000000831117156106cb57600080fd5b91908080601f016020809104026020016040519081016040528093929190818152602001838380828437600081840152601f19601f820116905080830192505050505050509192919290803573ffffffffffffffffffffffffffffffffffffffff169060200190929190505050610bb9565b604051808215151515815260200191505060405180910390f35b34801561076357600080fd5b5061076c610d21565b6040518082815260200191505060405180910390f35b60035481565b600080825114151515610803576040517f08c379a00000000000000000000000000000000000000000000000000000000081526004018080602001828103825260158152602001807f4e616d652063616e6e6f7420626520656d7074792e000000000000000000000081525060200191505060405180910390fd5b6000341415151561087c576040517f08c379a00000000000000000000000000000000000000000000000000000000081526004018080602001828103825260178152602001807f5061796d656e742063616e6e6f74206265207a65726f2e00000000000000000081525060200191505060405180910390fd5b61089160065434610d2790919063ffffffff16565b600454111515610909576040517f08c379a00000000000000000000000000000000000000000000000000000000081526004018080602001828103825260208152602001807f496e73756666696369656e7420746f74616c20746f6b656e20737570706c792e81525060200191505060405180910390fd5b336008836040518082805190602001908083835b602083101515610942578051825260208201915060208101905060208303925061091d565b6001836020036101000a038019825116818451168082178552505050505050905001915050908152602001604051809103902060006101000a81548173ffffffffffffffffffffffffffffffffffffffff021916908373ffffffffffffffffffffffffffffffffffffffff1602179055506109dc6109cb60065434610d2790919063ffffffff16565b600454610d5190919063ffffffff16565b600481905550610a746109fa60065434610d2790919063ffffffff16565b6007846040518082805190602001908083835b602083101515610a325780518252602082019150602081019050602083039250610a0d565b6001836020036101000a038019825116818451168082178552505050505050905001915050908152602001604051809103902054610d7390919063ffffffff16565b6007836040518082805190602001908083835b602083101515610aac5780518252602082019150602081019050602083039250610a87565b6001836020036101000a03801982511681845116808217855250505050505090500191505090815260200160405180910390208190555060019050919050565b60006007826040518082805190602001908083835b602083101515610b265780518252602082019150602081019050602083039250610b01565b6001836020036101000a0380198251168184511680821785525050505050509050019150509081526020016040518091039020549050919050565b600560009054906101000a900473ffffffffffffffffffffffffffffffffffffffff1681565b6000610b94848484610d94565b600190509392505050565b6000610bad8585858561157d565b60019050949350505050565b60008073ffffffffffffffffffffffffffffffffffffffff168273ffffffffffffffffffffffffffffffffffffffff1614151515610c5f576040517f08c379a00000000000000000000000000000000000000000000000000000000081526004018080602001828103825260178152602001807f416464726573732063616e6e6f7420626520656d70747900000000000000000081525060200191505060405180910390fd5b8173ffffffffffffffffffffffffffffffffffffffff166008846040518082805190602001908083835b602083101515610cae5780518252602082019150602081019050602083039250610c89565b6001836020036101000a038019825116818451168082178552505050505050905001915050908152602001604051809103902060009054906101000a900473ffffffffffffffffffffffffffffffffffffffff1673ffffffffffffffffffffffffffffffffffffffff1614905092915050565b60045481565b60008082111515610d3757600080fd5b60008284811515610d4457fe5b0490508091505092915050565b6000828211151515610d6257600080fd5b600082840390508091505092915050565b6000808284019050838110151515610d8a57600080fd5b8091505092915050565b600073ffffffffffffffffffffffffffffffffffffffff166008846040518082805190602001908083835b602083101515610de45780518252602082019150602081019050602083039250610dbf565b6001836020036101000a038019825116818451168082178552505050505050905001915050908152602001604051809103902060009054906101000a900473ffffffffffffffffffffffffffffffffffffffff1673ffffffffffffffffffffffffffffffffffffffff1614151515610ec4576040517f08c379a00000000000000000000000000000000000000000000000000000000081526004018080602001828103825260168152602001807f46726f6d206164647265737320697320656d7074792e0000000000000000000081525060200191505060405180910390fd5b600073ffffffffffffffffffffffffffffffffffffffff166008836040518082805190602001908083835b602083101515610f145780518252602082019150602081019050602083039250610eef565b6001836020036101000a038019825116818451168082178552505050505050905001915050908152602001604051809103902060009054906101000a900473ffffffffffffffffffffffffffffffffffffffff1673ffffffffffffffffffffffffffffffffffffffff1614151515610ff4576040517f08c379a00000000000000000000000000000000000000000000000000000000081526004018080602001828103825260148152602001807f546f206164647265737320697320656d7074792e00000000000000000000000081525060200191505060405180910390fd5b6110886008836040518082805190602001908083835b60208310151561102f578051825260208201915060208101905060208303925061100a565b6001836020036101000a038019825116818451168082178552505050505050905001915050908152602001604051809103902060009054906101000a900473ffffffffffffffffffffffffffffffffffffffff16611e19565b156112795760006008836040518082805190602001908083835b6020831015156110c757805182526020820191506020810190506020830392506110a2565b6001836020036101000a038019825116818451168082178552505050505050905001915050908152602001604051809103902060009054906101000a900473ffffffffffffffffffffffffffffffffffffffff1690508073ffffffffffffffffffffffffffffffffffffffff1663c0ee0b8a6008866040518082805190602001908083835b602083101515611171578051825260208201915060208101905060208303925061114c565b6001836020036101000a038019825116818451168082178552505050505050905001915050908152602001604051809103902060009054906101000a900473ffffffffffffffffffffffffffffffffffffffff16846040518363ffffffff167c0100000000000000000000000000000000000000000000000000000000028152600401808373ffffffffffffffffffffffffffffffffffffffff1673ffffffffffffffffffffffffffffffffffffffff168152602001828152602001806020018281038252600081526020016020019350505050600060405180830381600087803b15801561125f57600080fd5b505af1158015611273573d6000803e3d6000fd5b50505050505b6112f7816007856040518082805190602001908083835b6020831015156112b55780518252602082019150602081019050602083039250611290565b6001836020036101000a038019825116818451168082178552505050505050905001915050908152602001604051809103902054610d5190919063ffffffff16565b6007846040518082805190602001908083835b60208310151561132f578051825260208201915060208101905060208303925061130a565b6001836020036101000a0380198251168184511680821785525050505050509050019150509081526020016040518091039020819055506113e4816007846040518082805190602001908083835b6020831015156113a2578051825260208201915060208101905060208303925061137d565b6001836020036101000a038019825116818451168082178552505050505050905001915050908152602001604051809103902054610d7390919063ffffffff16565b6007836040518082805190602001908083835b60208310151561141c57805182526020820191506020810190506020830392506113f7565b6001836020036101000a0380198251168184511680821785525050505050509050019150509081526020016040518091039020819055507fe8cca054678291c72a36fdd68416aea936e6b2720caa266fa5070fbae858d19183838360405180806020018060200184815260200180602001848103845287818151815260200191508051906020019080838360005b838110156114c55780820151818401526020810190506114aa565b50505050905090810190601f1680156114f25780820380516001836020036101000a031916815260200191505b50848103835286818151815260200191508051906020019080838360005b8381101561152b578082015181840152602081019050611510565b50505050905090810190601f1680156115585780820380516001836020036101000a031916815260200191505b50848103825260008152602001602001965050505050505060405180910390a1505050565b600073ffffffffffffffffffffffffffffffffffffffff166008856040518082805190602001908083835b6020831015156115cd57805182526020820191506020810190506020830392506115a8565b6001836020036101000a038019825116818451168082178552505050505050905001915050908152602001604051809103902060009054906101000a900473ffffffffffffffffffffffffffffffffffffffff1673ffffffffffffffffffffffffffffffffffffffff16141515156116ad576040517f08c379a00000000000000000000000000000000000000000000000000000000081526004018080602001828103825260168152602001807f46726f6d206164647265737320697320656d7074792e0000000000000000000081525060200191505060405180910390fd5b600073ffffffffffffffffffffffffffffffffffffffff166008846040518082805190602001908083835b6020831015156116fd57805182526020820191506020810190506020830392506116d8565b6001836020036101000a038019825116818451168082178552505050505050905001915050908152602001604051809103902060009054906101000a900473ffffffffffffffffffffffffffffffffffffffff1673ffffffffffffffffffffffffffffffffffffffff16141515156117dd576040517f08c379a00000000000000000000000000000000000000000000000000000000081526004018080602001828103825260148152602001807f546f206164647265737320697320656d7074792e00000000000000000000000081525060200191505060405180910390fd5b6118716008846040518082805190602001908083835b60208310151561181857805182526020820191506020810190506020830392506117f3565b6001836020036101000a038019825116818451168082178552505050505050905001915050908152602001604051809103902060009054906101000a900473ffffffffffffffffffffffffffffffffffffffff16611e19565b15611abb5760006008846040518082805190602001908083835b6020831015156118b0578051825260208201915060208101905060208303925061188b565b6001836020036101000a038019825116818451168082178552505050505050905001915050908152602001604051809103902060009054906101000a900473ffffffffffffffffffffffffffffffffffffffff1690508073ffffffffffffffffffffffffffffffffffffffff1663c0ee0b8a6008876040518082805190602001908083835b60208310151561195a5780518252602082019150602081019050602083039250611935565b6001836020036101000a038019825116818451168082178552505050505050905001915050908152602001604051809103902060009054906101000a900473ffffffffffffffffffffffffffffffffffffffff1685856040518463ffffffff167c0100000000000000000000000000000000000000000000000000000000028152600401808473ffffffffffffffffffffffffffffffffffffffff1673ffffffffffffffffffffffffffffffffffffffff16815260200183815260200180602001828103825283818151815260200191508051906020019080838360005b83811015611a53578082015181840152602081019050611a38565b50505050905090810190601f168015611a805780820380516001836020036101000a031916815260200191505b50945050505050600060405180830381600087803b158015611aa157600080fd5b505af1158015611ab5573d6000803e3d6000fd5b50505050505b611b39826007866040518082805190602001908083835b602083101515611af75780518252602082019150602081019050602083039250611ad2565b6001836020036101000a038019825116818451168082178552505050505050905001915050908152602001604051809103902054610d5190919063ffffffff16565b6007856040518082805190602001908083835b602083101515611b715780518252602082019150602081019050602083039250611b4c565b6001836020036101000a038019825116818451168082178552505050505050905001915050908152602001604051809103902081905550611c26826007856040518082805190602001908083835b602083101515611be45780518252602082019150602081019050602083039250611bbf565b6001836020036101000a038019825116818451168082178552505050505050905001915050908152602001604051809103902054610d7390919063ffffffff16565b6007846040518082805190602001908083835b602083101515611c5e5780518252602082019150602081019050602083039250611c39565b6001836020036101000a0380198251168184511680821785525050505050509050019150509081526020016040518091039020819055507fe8cca054678291c72a36fdd68416aea936e6b2720caa266fa5070fbae858d1918484848460405180806020018060200185815260200180602001848103845288818151815260200191508051906020019080838360005b83811015611d08578082015181840152602081019050611ced565b50505050905090810190601f168015611d355780820380516001836020036101000a031916815260200191505b50848103835287818151815260200191508051906020019080838360005b83811015611d6e578082015181840152602081019050611d53565b50505050905090810190601f168015611d9b5780820380516001836020036101000a031916815260200191505b50848103825285818151815260200191508051906020019080838360005b83811015611dd4578082015181840152602081019050611db9565b50505050905090810190601f168015611e015780820380516001836020036101000a031916815260200191505b5097505050505050505060405180910390a150505050565b600080823b905060008163ffffffff161191505091905056fea165627a7a7230582038e6c836b0e4fe17e3e7822aeb1d4a81a3046449764153d6a3df005dd6e474ce0029",
  "source": "// Author:          Jason You All Rights Reserved\n// Last modified:   March 18 2019\n\npragma solidity >=0.4.11;\n\nimport \"./ERC223Interface.sol\";\nimport \"./SafeMath.sol\";\nimport \"./ERC223ReceivingContract.sol\";     // fallbackFunction receiving contract\n\n\n/**\n * @title Implementation of ERC223 token.\n */\n\n/**\n * @dev    This contract implements the ERC223 token, and requires the token\n *         handling contracts to include tokenFallback function. We emit\n *         each Transfer event after successly making a transfer.\n * \n *         Notice that this contract does not provide any reclaim functions\n *         for Ether, thus for market stable reason, any Ether sent to this\n *         contract in exchange for the ERC223 token will be burned.\n */\ncontract ERC223 is ERC223Interface {\n\n    using SafeMath for uint;     // so that uint256 can use SafeMath functions\n\n    /***********************************/\n    /***** Glocal Storage Variables ****/\n    /***********************************/\n\n    uint public totalSupply;        // total number of tokens\n    uint public remainingSupply;    // remaining supplies\n    address public owner;           // owner of this contract\n    uint price;                     // (n Wei / ERC223_token)\n    \n    mapping (string => uint) private _balances;          // storing all the balances by names\n    mapping (string => address) private _identities;     // storing (name => address)\n     \n    /**\n     * @dev     Constructor for the ERC223 token.\n     *          All the totalSupply, remainingSupply, price are hard coded.\n     *          totalSupply:    Total supply is 21,000,000, with the initiator to be the contract owner\n     *          owner:          Contract owner is the caller.\n     *          price:          One Ether (or 1e18 Wei) worth 100 our ERC223 token\n     *                          Thus one of our token worth 1e16 Wei\n     */\n    constructor() public {\n        totalSupply     = 21000000;\n        remainingSupply = 21000000;\n        owner           = msg.sender;\n        price           = 1e16;           // 1 ERC223 = 1e16 Wei (or 0.01 Ether)\n    }\n     \n\n    /***********************************/\n    /******* Functions of ERC223 *******/\n    /***********************************/\n    \n    /**\n     * @dev    Register the sender address with the given name mapping to address.\n     * @param  myName The name that we want the message sender address bind to.\n     * @return ture if the binding is successful.\n     */\n    function registerMe(string memory myName) public payable returns (bool) {\n        require(bytes(myName).length != 0, \"Name cannot be empty.\");     // must change to bytes to get length\n        \n        // payable must get payment\n        require(msg.value != 0, \"Payment cannot be zero.\");\n        \n        // check if the supply is sufficient\n        require(remainingSupply > (msg.value.div(price)), \"Insufficient total token supply.\");\n        \n        // Register the applier\n        _identities[myName] = msg.sender;\n        \n        // Decrease the total supply of our token\n        remainingSupply = remainingSupply.sub(msg.value.div(price));\n        \n        // TODO: check that the unit for division of Ether and ERC223 token are right!\n        \n        // Token is assigned to user with the amount paid divided by the fixed price\n        _balances[myName] = _balances[myName].add(msg.value.div(price));\n        \n        return true;\n    }\n\n    /**\n     * @dev     Check if the name and address pair is registered.\n     * @param   name The name bind to the address.\n     * @param   addr The address relate to the name.\n     * @return  true if the name address pair exists.\n     */\n    function isRegistered(string memory name, address addr) public view returns (bool){\n        require(addr != address(0), \"Address cannot be empty\");        // address must be valid\n        return (_identities[name] == addr);\n    }\n\n    /**\n     * @dev     Query the balance of the person.\n     * @param   who The person that account balance will be checked.\n     * @return  The balance of the address relates to the person.\n     */\n    function balanceOf(string memory who) public view returns (uint) {\n        return _balances[who];\n    }\n\n    /**\n     * @dev This tranfer function is for backward compatibility with ERC20 standard.\n     * @param from The address that sends the funds.\n     * @param to The address that receives the funds.\n     * @param value The amount been transfered.\n     */\n    function transfer(string memory from, string memory to, uint value) public returns (bool) {\n        _transfer(from, to, value);\n        return true;\n    }\n\n    /**\n     * @dev This is the main transfer function for ERC223 standard.\n     * @param from The address that sends the funds.\n     * @param to The address that receives the funds.\n     * @param value The amount been transfered.\n     * @param data The metadata been sent along with the transaction.\n     */\n    function transfer(string memory from, string memory to, uint value, bytes memory data) public returns (bool) {\n        _transfer(from, to, value, data);\n        return true;\n    }\n    \n    /***********************************/\n    /**** Internal Helper Functions ****/\n    /***********************************/\n    \n    /**\n     * @dev This is the helper function for transfering without data.\n     * @param from The address that sends the funds.\n     * @param to The address that receives the funds.\n     * @param value The amount been transfered.\n     */\n    function _transfer(string memory from, string memory to, uint value) internal {\n        // Check the validity of the from and to addresses\n        require(_identities[from] != address(0), \"From address is empty.\");\n        require(_identities[to] != address(0), \"To address is empty.\");\n        \n        // If the funds are sent to a contract address, then this contract must\n        // already implements the tokenFallback function as defined in the\n        // abstract contract ERC223ReceivingContract.\n        if (_isContract(_identities[to])) {\n            ERC223ReceivingContract receiver = ERC223ReceivingContract(_identities[to]);\n            receiver.tokenFallback(_identities[from], value, \"\");\n        }\n        \n        // Transfering the fund\n        _balances[from] = _balances[from].sub(value);\n        _balances[to] = _balances[to].add(value);\n\n        // Publish the successful tranfering event        \n        emit Transfer(from, to, value, \"\");\n    }\n    \n    /**\n     * @dev This is the helper function for transfering with data.\n     * @param from The address that sends the funds.\n     * @param to The address that receives the funds.\n     * @param value The amount been transfered.\n     * @param data The metadata been sent along with the transaction.\n     */\n    function _transfer(string memory from, string memory to, uint value, bytes memory data) internal {\n        // Check the validity of the from and to addresses\n        require(_identities[from] != address(0), \"From address is empty.\");\n        require(_identities[to] != address(0), \"To address is empty.\");\n        \n        // If the funds are sent to a contract address, then this contract must\n        // already implements the tokenFallback function as defined in the\n        // abstract contract ERC223ReceivingContract.\n        if (_isContract(_identities[to])) {\n            ERC223ReceivingContract receiver = ERC223ReceivingContract(_identities[to]);\n            receiver.tokenFallback(_identities[from], value, data);\n        }\n        \n        // Transfering the fund\n        _balances[from] = _balances[from].sub(value);\n        _balances[to] = _balances[to].add(value);\n\n        // Publish the successful tranfering event        \n        emit Transfer(from, to, value, data);\n    }\n    \n    /**\n     * @dev Check if an address is a contract.\n     * @param _addr The address to test for.\n     * @return true if this is a contract address, false otherwise.\n     */\n    function _isContract(address _addr) private view returns (bool) {\n        /*\n        This function must be private, not each internal. Otherwise attacker can inheriate This\n        function and calling this function from a contract constructor and trick this test.\n        \n        private:\n            Private functions and state variables are only visible for the contract they are defined in\n            and not in derived contracts.\n        Note:\n            Everything that is inside a contract is visible to all observers external to the blockchain. \n            Making something private only prevents other contracts from accessing and modifying the \n            information, but it will still be visible to the whole world outside of the blockchain.\n        */\n        \n        uint32 size;\n        assembly {\n            size := extcodesize(_addr)\n        }\n        return (size > 0);\n    }\n}\n\n",
  "sourcePath": "/Users/jasonyou1/Library/Mobile Documents/com~apple~CloudDocs/Main-IC/Study/CLASS(Purdue)/spring2019-purdue/CS59000-BTS/Labs-590BTS/Lab2-BTS/lab2-submit/contracts/ERC223.sol",
  "compiler": {
    "name": "solc",
    "version": "0.5.1+commit.c8a2cb62.Emscripten.clang"
  },
  "schemaVersion": "3.0.2",
  "updatedAt": "2019-03-21T21:25:26.210Z",
  "devdoc": {
    "details": "This contract implements the ERC223 token, and requires the token        handling contracts to include tokenFallback function. We emit        each Transfer event after successly making a transfer.  *         Notice that this contract does not provide any reclaim functions        for Ether, thus for market stable reason, any Ether sent to this        contract in exchange for the ERC223 token will be burned.",
    "methods": {
      "balanceOf(string)": {
        "details": "Query the balance of the person.",
        "params": {
          "who": "The person that account balance will be checked."
        },
        "return": "The balance of the address relates to the person."
      },
      "constructor": {
        "details": "Constructor for the ERC223 token.         All the totalSupply, remainingSupply, price are hard coded.         totalSupply:    Total supply is 21,000,000, with the initiator to be the contract owner         owner:          Contract owner is the caller.         price:          One Ether (or 1e18 Wei) worth 100 our ERC223 token                         Thus one of our token worth 1e16 Wei"
      },
      "isRegistered(string,address)": {
        "details": "Check if the name and address pair is registered.",
        "params": {
          "addr": "The address relate to the name.",
          "name": "The name bind to the address."
        },
        "return": "true if the name address pair exists."
      },
      "registerMe(string)": {
        "details": "Register the sender address with the given name mapping to address.",
        "params": {
          "myName": "The name that we want the message sender address bind to."
        },
        "return": "ture if the binding is successful."
      },
      "transfer(string,string,uint256)": {
        "details": "This tranfer function is for backward compatibility with ERC20 standard.",
        "params": {
          "from": "The address that sends the funds.",
          "to": "The address that receives the funds.",
          "value": "The amount been transfered."
        }
      },
      "transfer(string,string,uint256,bytes)": {
        "details": "This is the main transfer function for ERC223 standard.",
        "params": {
          "data": "The metadata been sent along with the transaction.",
          "from": "The address that sends the funds.",
          "to": "The address that receives the funds.",
          "value": "The amount been transfered."
        }
      }
    }
  },
  "userdoc": {
    "methods": {}
  }
}